:0800000077CC76CCACCC74CCBB
:1018C00017C016C04CC014C00902120001010080EC
:1018D0003209040000000000000012011001FF00A6
:1018E0000008D01653070B0100000001040309048F
:1018F00011241FBECFE5D2E0CDBFDEBF00EB0F93BA
:1019000007E00F9310E0A0E6B0E0E0EDFFE102C0D9
:1019100005900D92A636B107D9F720E0A6E6B0E013
:1019200001C01D92A639B207E1F7E2C1A82FB92F75
:1019300080E090E041E050EA609530E009C02D91F0
:1019400082279795879510F084279527305EC8F3F6
:101950006F5FA8F30895EADF8D939D930895CF9369
:10196000CFB7CF93C0915F02C03B21F4C0915E021C
:10197000C73021F0CF91CFBFCF91A1CFCC27C39556
:10198000B39BE9F7B39B0BC0B39B09C0B39B07C0E4
:10199000B39B05C0B39B03C0B39B01C0D3C00F92E0
:1019A000DF93C0917900DD27C058DF4F012EB39B34
:1019B00003C0DF910F90E6CF2F930F931F934F93A8
:1019C0002FEF4F6F06B303FB20F95F933F9350E077
:1019D0003BE065C016B30126502953FDC89556B3A8
:1019E000012703FB25F92F7306B3B1F05027102709
:1019F00013FB26F906B22230F0F000C016B301271F
:101A000003FB27F90126502906B22430E8F54F7769
:101A1000206816B30000F6CF50274F7D206206B233
:101A2000102F000000C006B300265029102713FB1A
:101A300026F906B2E2CF4F7B06B3206400C0DACFAE
:101A400001265029187106B269F14E7F2160012FDD
:101A500016B328C0002650294D7F06B22260102FF1
:101A600029C0012650294B7F06B22460012F2DC0CA
:101A700016B301265029477F2860000006B22EC009
:101A80004F7E06B3206130C0422706B3499300263B
:101A90005029102706B24FEF13FB20F9297F16B308
:101AA00079F2187159F10126502906B2012703FB7A
:101AB00021F9237F06B371F2002650293150D0F06E
:101AC00006B2102713FB22F9277E16B351F2012626
:101AD0005029012703FB06B223F92F7C49F20000AD
:101AE00006B3102713FB24F90026502906B22F79DC
:101AF00039F270CF10E21ABF002717C03B50319562
:101B0000C31BD04010E21ABF0881033CF9F00B342C
:101B1000E9F0209177001981110F1213EDCF0936EA
:101B200051F10D3211F0013E39F700937E003F91E3
:101B30005F914F911F910F912F91DF910F90CAB735
:101B4000C5FD1DCFCF91CFBFCF91189520917E00BD
:101B5000222369F310917C00112321F5343022F106
:101B600030937C0020937800109179003BE0311B8A
:101B70003093790019C000917C0001309CF40AE593
:101B80003091650034FD11C000936500CCE6D0E0D3
:101B900010C0052710E000C021C0052710E0C8953F
:101BA00008BB14C03AE501C032ED032EC0E0D0E01E
:101BB00032E017B31861C39A08B317BB58E120E8A5
:101BC0004FEF20FF052708BB279517951C3F28F7E7
:101BD00000004552B0F720FF0527279508BB179551
:101BE0001C3FB8F629913A9561F7077E10917D0068
:101BF000110F08BBC250D04011F01093770010E2D3
:101C00001ABF086017B3177E402F477E54E05A95DD
:101C1000F1F708BB17BB48BB8ACFF8942FEFB0E8A9
:101C2000A0E44AE0B1BF000081EE9CE0B399FECF92
:101C3000B39BFECF0197B399FDCF97FF03C0BA1BAB
:101C4000819501C0BA0FA69529F4281710F031B775
:101C5000282FA1E0415031F731BF0000789408955A
:101C6000F894F201329785E080935700E8957894D4
:101C700008959C01C2010097A1F43093680020935D
:101C800067002FE53CEC8FB7F89491E0F201090171
:101C900090935700E8951124F2E04F0E511C8FBF2E
:101CA0000895049789F04CEB441648E1540689F0F6
:101CB000EEEB4E16E8E15E0699F420916900309152
:101CC0006A002D553C4FDFCF30936A0020936900A6
:101CD000D8CF20916700309168002E553C4FD3CF6C
:101CE000FAEB4F16F8E15F0671F621B730E0CBCF83
:101CF00014BE88E181BD87E081BDBA98C29888E8AA
:101D000093E1ECE9F1E03197F1F70197D1F7BA9A55
:101D1000C29AAC9A8BB780628BBF7894712C8CE995
:101D200091E00197F1F7A895312C60917C001DEFAF
:101D3000160F17FD49C080917900CCE0D0E0C81B98
:101D4000D109C058DF4F6150CE01F0DD8E3F9F4476
:101D5000C9F5809178008D3209F013C1183091F5E2
:101D600083EC80936C008AE58093650010926B0091
:101D70002881822F80769981882309F4BBC0712C39
:101D800091110FC080E690E090937B0080937A00E1
:101D900084E09F81911114C09E81981788F4892F47
:101DA0000FC0913009F0A3C081E180935700E895FE
:101DB0004C805D808FEF27FD8E8190E890936B00C3
:101DC0008093640010927C008091650084FF39C08C
:101DD000809164008F3FA9F1C82F893008F0C8E0D6
:101DE000982F9C1B9093640090916C0028E8922798
:101DF00090936C008823C1F080917A0090917B00D1
:101E000030916B002C2F280F36FFD3C0FC018DE6DC
:101E100090E03491DC013C93019631962E13F9CF7A
:101E2000F0937B00E0937A006C2F8DE690E093DDD9
:101E300084E08C0FC83019F09FEF9093640080937A
:101E4000650084E196B3987131F48150D9F710920E
:101E50007D0010927700C1E08111C0E09091660092
:101E6000C91721F08111D9DEC0936600C301019624
:101E70003C018035934C11F484E0382E832D3320BF
:101E8000D9F0EAE3F0E23197F1F7823009F09CC033
:101E9000F894E0ECF8E1E054F10983E08093570016
:101EA000E8953097C1F7512C412CC8E08FEF9FEF98
:101EB000E0DEC150D9F7D4DE24E0321230CFEDEBB2
:101EC000F8E1E491EF3F09F42ACFF894BA98C29868
:101ED0001BBE15BA10925F02EAEBF8E1E4918FEFB6
:101EE0008E0F8E3F10F4E1BF0000E8CCFFCF392EFB
:101EF00080E04FCF2A811092750091110AC0109294
:101F0000760025E730E082E030937B0020937A0072
:101F100040CF953029F420937D0025E730E0F4CFC1
:101F20009630F9F49B81913059F48AED98E19093C1
:101F30007B0080937A0082E190E490936B0029CF3C
:101F4000923019F488EC98E1F2CF9330A9F721117F
:101F5000F3CF8CEE98E190937B0080937A0084E03D
:101F6000EBCF983051F0993019F420937F00D5CF02
:101F700081E09A3091F280E0D0CF2FE730E081E02D
:101F8000C3CF80916B0087FF1DCF80EC481688E19E
:101F9000580648F0842D8F7309F014CF95E0392E40
:101FA000109264000FCF8991999163DE125069F706
:101FB000F1CF4DE650E0DC018D91FA018193AF0144
:101FC000FD012A13F9CF2CCF853009F474CF74CFDB
:061FD00018BA4008FF5A98
:04000003000018C021
:00000001FF
